{
  "contractName": "ExternalStorage",
  "abi": [
    {
      "constant": false,
      "inputs": [
        {
          "name": "_id1",
          "type": "uint256"
        },
        {
          "name": "_id2",
          "type": "uint256"
        }
      ],
      "name": "setConnection",
      "outputs": [],
      "payable": false,
      "stateMutability": "nonpayable",
      "type": "function"
    },
    {
      "constant": false,
      "inputs": [
        {
          "name": "mAdr",
          "type": "address"
        },
        {
          "name": "ilID",
          "type": "uint256"
        }
      ],
      "name": "setIslandId",
      "outputs": [],
      "payable": false,
      "stateMutability": "nonpayable",
      "type": "function"
    },
    {
      "constant": false,
      "inputs": [
        {
          "name": "mAdr",
          "type": "address"
        }
      ],
      "name": "getIslandId",
      "outputs": [
        {
          "name": "",
          "type": "uint256"
        }
      ],
      "payable": false,
      "stateMutability": "nonpayable",
      "type": "function"
    },
    {
      "constant": false,
      "inputs": [
        {
          "name": "mAdr",
          "type": "address"
        },
        {
          "name": "ilID",
          "type": "uint256"
        }
      ],
      "name": "addMeter",
      "outputs": [],
      "payable": false,
      "stateMutability": "nonpayable",
      "type": "function"
    },
    {
      "constant": false,
      "inputs": [
        {
          "name": "_id1",
          "type": "uint256"
        },
        {
          "name": "_id2",
          "type": "uint256"
        }
      ],
      "name": "getConnection",
      "outputs": [
        {
          "name": "",
          "type": "bool"
        }
      ],
      "payable": false,
      "stateMutability": "nonpayable",
      "type": "function"
    },
    {
      "constant": false,
      "inputs": [
        {
          "name": "mAdr",
          "type": "address"
        }
      ],
      "name": "getEnergy",
      "outputs": [
        {
          "name": "",
          "type": "int256"
        }
      ],
      "payable": false,
      "stateMutability": "nonpayable",
      "type": "function"
    },
    {
      "constant": false,
      "inputs": [
        {
          "name": "mAdr",
          "type": "address"
        },
        {
          "name": "energyDelta",
          "type": "int256"
        }
      ],
      "name": "setEnergy",
      "outputs": [],
      "payable": false,
      "stateMutability": "nonpayable",
      "type": "function"
    },
    {
      "constant": false,
      "inputs": [
        {
          "name": "mAdr",
          "type": "address"
        }
      ],
      "name": "getMeter",
      "outputs": [
        {
          "name": "",
          "type": "uint256"
        }
      ],
      "payable": false,
      "stateMutability": "nonpayable",
      "type": "function"
    },
    {
      "constant": false,
      "inputs": [
        {
          "name": "mAdr",
          "type": "address"
        },
        {
          "name": "balanceDelta",
          "type": "uint256"
        }
      ],
      "name": "setBalance",
      "outputs": [],
      "payable": false,
      "stateMutability": "nonpayable",
      "type": "function"
    },
    {
      "constant": false,
      "inputs": [
        {
          "name": "mAdr1",
          "type": "address"
        },
        {
          "name": "mAdr2",
          "type": "address"
        }
      ],
      "name": "isNodesConnected",
      "outputs": [
        {
          "name": "",
          "type": "bool"
        }
      ],
      "payable": false,
      "stateMutability": "nonpayable",
      "type": "function"
    },
    {
      "constant": false,
      "inputs": [
        {
          "name": "mAdr",
          "type": "address"
        }
      ],
      "name": "getBalance",
      "outputs": [
        {
          "name": "",
          "type": "uint256"
        }
      ],
      "payable": false,
      "stateMutability": "nonpayable",
      "type": "function"
    },
    {
      "inputs": [],
      "payable": false,
      "stateMutability": "nonpayable",
      "type": "constructor"
    }
  ],
  "bytecode": "0x6060604052341561000f57600080fd5b60008054600160a060020a033316600160a060020a03199091161790556104d48061003b6000396000f3006060604052600436106100ae5763ffffffff7c0100000000000000000000000000000000000000000000000000000000600035041663158ac57581146100b35780632b9b6055146100ce57806330e3ecac146100f0578063562f3b26146101215780635ca51979146101435780638fc0f5eb14610170578063b778962e1461018f578063c611e2a9146100f0578063e30443bc146101b1578063f3fab048146101d3578063f8b2cb4f146101f8575b600080fd5b34156100be57600080fd5b6100cc600435602435610217565b005b34156100d957600080fd5b6100cc600160a060020a0360043516602435610257565b34156100fb57600080fd5b61010f600160a060020a0360043516610291565b60405190815260200160405180910390f35b341561012c57600080fd5b6100cc600160a060020a03600435166024356102cc565b341561014e57600080fd5b61015c600435602435610340565b604051901515815260200160405180910390f35b341561017b57600080fd5b61010f600160a060020a0360043516610379565b341561019a57600080fd5b6100cc600160a060020a03600435166024356103b0565b34156101bc57600080fd5b6100cc600160a060020a03600435166024356103ea565b34156101de57600080fd5b61015c600160a060020a0360043581169060243516610428565b341561020357600080fd5b61010f600160a060020a036004351661046d565b60005433600160a060020a03908116911614156100ae5760008281526002602090815260408083208484529091529020805460ff191660011790555b5050565b60005433600160a060020a03908116911614156100ae57600160a060020a0382166000908152600160205260409020600201819055610253565b6000805433600160a060020a03908116911614156100ae5750600160a060020a0381166000908152600160205260409020600201545b919050565b60005433600160a060020a03908116911614156100ae576060604051908101604090815260008083526064602080850191909152828401859052600160a060020a03861682526001905220815181556020820151816001015560408201516002909101555061033b8180610217565b610253565b6000805433600160a060020a03908116911614156100ae5750600091825260026020908152604080842092845291905290205460ff1690565b6000805433600160a060020a03908116911614156100ae5750600160a060020a0381166000908152600160205260409020546102c7565b60005433600160a060020a03908116911614156100ae57600160a060020a0382166000908152600160205260409020805482019055610253565b60005433600160a060020a03908116911614156100ae57600160a060020a038216600090815260016020819052604090912001805482019055610253565b600080548190819033600160a060020a03908116911614156100ae5761044d85610291565b915061045884610291565b90506104648282610340565b95945050505050565b6000805433600160a060020a03908116911614156100ae5750600160a060020a038116600090815260016020819052604090912001546102c75600a165627a7a72305820664bffca8e67560de4a1f3393952d0459eb9f8c3db722bee75be2808b147f37f0029",
  "source": "pragma solidity ^0.4.8;\r\n\r\ncontract ExternalStorage {\r\n\r\n  address   adminAdr;\r\n\r\n  struct Portefeuille {\r\n    int     energyAccumul;\r\n    uint    balance;\r\n    uint    islandID;\r\n  }\r\n  \r\n  mapping(address=>Portefeuille) profil;\r\n  mapping(uint=>mapping(uint=>bool)) isConnected;\r\n\r\n  //event MeterLog(int energyDelta, uint changeAt);\r\n  // events should be placed in the main contract...\r\n\r\n  function ExternalStorage() {\r\n    // constructor\r\n    adminAdr = msg.sender;\r\n  }\r\n\r\n  modifier adminOnly {\r\n    if (msg.sender == adminAdr) {\r\n      _;\r\n    } else {\r\n      revert();\r\n    }\r\n  }\r\n\r\n  // Simple set and get functions\r\n\r\n  function addMeter(address mAdr, uint ilID) adminOnly {\r\n    profil[mAdr] = Portefeuille(0,100,ilID);    //By default we allocatoin 100 points into the account\r\n    setConnection(ilID,ilID);\r\n\r\n    // For now we do not delete the smart meter or disenable it..... (it mighted be a dead smart meter placed in the network)\r\n  }\r\n\r\n  function getMeter(address mAdr) adminOnly returns(uint) {\r\n    return profil[mAdr].islandID;\r\n  }\r\n\r\n  function setEnergy(address mAdr, int energyDelta) adminOnly {\r\n    // require... assert the address is in the network...\r\n    profil[mAdr].energyAccumul += energyDelta;\r\n\r\n  }\r\n\r\n  function getEnergy(address mAdr) adminOnly returns(int) {\r\n    return profil[mAdr].energyAccumul;\r\n  }\r\n\r\n  function setBalance(address mAdr, uint balanceDelta) adminOnly {\r\n    // require... assert the address is in the network...\r\n    profil[mAdr].balance += balanceDelta;\r\n  }\r\n\r\n  function getBalance(address mAdr) adminOnly returns(uint) {\r\n    return profil[mAdr].balance;\r\n  }\r\n\r\n  function setIslandId(address mAdr, uint ilID) adminOnly {\r\n    // require... assert the address is in the network...\r\n    profil[mAdr].islandID = ilID;\r\n  }\r\n\r\n  function getIslandId(address mAdr) adminOnly returns(uint) {\r\n    return profil[mAdr].islandID;\r\n  }\r\n\r\n  function setConnection(uint _id1, uint _id2) adminOnly {\r\n    //require(!getConnection(_id1, _id2));\r\n    isConnected[_id1][_id2] = true;\r\n  }\r\n\r\n  function getConnection(uint _id1, uint _id2) adminOnly returns(bool) {\r\n    return isConnected[_id1][_id2];\r\n  }\r\n\r\n  function isNodesConnected(address mAdr1, address mAdr2) adminOnly returns(bool) {\r\n    uint temp1;\r\n    uint temp2;\r\n    temp1 = getIslandId(mAdr1);\r\n    temp2 = getIslandId(mAdr2);\r\n    return getConnection(temp1,temp2);\r\n  }\r\n}\r\n",
  "sourcePath": "C:\\Users\\qianc\\Documents\\H4C\\H4C_EB_Island\\SmartContract\\contracts\\ExternalStorage.sol",
  "compiler": {
    "name": "solc",
    "version": "0.4.18+commit.9cf6e910.Emscripten.clang"
  },
  "schemaVersion": "1.0.1",
  "updatedAt": "2017-11-14T23:18:19.330Z"
}