{
  "contractName": "ExternalStorage",
  "abi": [
    {
      "constant": false,
      "inputs": [
        {
          "name": "_id1",
          "type": "uint256"
        },
        {
          "name": "_id2",
          "type": "uint256"
        }
      ],
      "name": "setConnection",
      "outputs": [],
      "payable": false,
      "stateMutability": "nonpayable",
      "type": "function"
    },
    {
      "constant": false,
      "inputs": [
        {
          "name": "mAdr",
          "type": "address"
        },
        {
          "name": "balanceDelta",
          "type": "int256"
        }
      ],
      "name": "setBalance",
      "outputs": [],
      "payable": false,
      "stateMutability": "nonpayable",
      "type": "function"
    },
    {
      "constant": false,
      "inputs": [
        {
          "name": "mAdr",
          "type": "address"
        },
        {
          "name": "ilID",
          "type": "uint256"
        }
      ],
      "name": "setIslandId",
      "outputs": [],
      "payable": false,
      "stateMutability": "nonpayable",
      "type": "function"
    },
    {
      "constant": false,
      "inputs": [
        {
          "name": "mAdr",
          "type": "address"
        }
      ],
      "name": "getIslandId",
      "outputs": [
        {
          "name": "",
          "type": "uint256"
        }
      ],
      "payable": false,
      "stateMutability": "nonpayable",
      "type": "function"
    },
    {
      "constant": false,
      "inputs": [
        {
          "name": "mAdr",
          "type": "address"
        },
        {
          "name": "ilID",
          "type": "uint256"
        }
      ],
      "name": "addMeter",
      "outputs": [],
      "payable": false,
      "stateMutability": "nonpayable",
      "type": "function"
    },
    {
      "constant": false,
      "inputs": [
        {
          "name": "_id1",
          "type": "uint256"
        },
        {
          "name": "_id2",
          "type": "uint256"
        }
      ],
      "name": "getConnection",
      "outputs": [
        {
          "name": "",
          "type": "bool"
        }
      ],
      "payable": false,
      "stateMutability": "nonpayable",
      "type": "function"
    },
    {
      "constant": false,
      "inputs": [
        {
          "name": "mAdr",
          "type": "address"
        }
      ],
      "name": "getEnergy",
      "outputs": [
        {
          "name": "",
          "type": "int256"
        }
      ],
      "payable": false,
      "stateMutability": "nonpayable",
      "type": "function"
    },
    {
      "constant": false,
      "inputs": [
        {
          "name": "mAdr",
          "type": "address"
        },
        {
          "name": "energyDelta",
          "type": "int256"
        }
      ],
      "name": "setEnergy",
      "outputs": [],
      "payable": false,
      "stateMutability": "nonpayable",
      "type": "function"
    },
    {
      "constant": false,
      "inputs": [
        {
          "name": "mAdr1",
          "type": "address"
        },
        {
          "name": "mAdr2",
          "type": "address"
        }
      ],
      "name": "isNodesConnected",
      "outputs": [
        {
          "name": "",
          "type": "bool"
        }
      ],
      "payable": false,
      "stateMutability": "nonpayable",
      "type": "function"
    },
    {
      "constant": false,
      "inputs": [
        {
          "name": "mAdr",
          "type": "address"
        }
      ],
      "name": "getBalance",
      "outputs": [
        {
          "name": "",
          "type": "int256"
        }
      ],
      "payable": false,
      "stateMutability": "nonpayable",
      "type": "function"
    },
    {
      "inputs": [],
      "payable": false,
      "stateMutability": "nonpayable",
      "type": "constructor"
    }
  ],
  "bytecode": "0x6060604052341561000f57600080fd5b6103c18061001e6000396000f3006060604052600436106100a35763ffffffff7c0100000000000000000000000000000000000000000000000000000000600035041663158ac57581146100a85780632b12d308146100c35780632b9b6055146100e557806330e3ecac14610107578063562f3b26146101385780635ca519791461015a5780638fc0f5eb14610187578063b778962e146101a6578063f3fab048146101c8578063f8b2cb4f146101ed575b600080fd5b34156100b357600080fd5b6100c160043560243561020c565b005b34156100ce57600080fd5b6100c1600160a060020a0360043516602435610232565b34156100f057600080fd5b6100c1600160a060020a0360043516602435610257565b341561011257600080fd5b610126600160a060020a0360043516610276565b60405190815260200160405180910390f35b341561014357600080fd5b6100c1600160a060020a0360043516602435610294565b341561016557600080fd5b6101736004356024356102ec565b604051901515815260200160405180910390f35b341561019257600080fd5b610126600160a060020a036004351661030c565b34156101b157600080fd5b6100c1600160a060020a0360043516602435610327565b34156101d357600080fd5b610173600160a060020a0360043581169060243516610349565b34156101f857600080fd5b610126600160a060020a0360043516610377565b60009182526001602081815260408085209385529290529120805460ff19169091179055565b600160a060020a03909116600090815260208190526040902060010180549091019055565b600160a060020a03909116600090815260208190526040902060020155565b600160a060020a031660009081526020819052604090206002015490565b6060604051908101604090815260008083526020808401829052828401859052600160a060020a03861682528190522081518155602082015181600101556040820151600290910155506102e8818061020c565b5050565b600091825260016020908152604080842092845291905290205460ff1690565b600160a060020a031660009081526020819052604090205490565b600160a060020a03909116600090815260208190526040902080549091019055565b600080600061035785610276565b915061036284610276565b905061036e82826102ec565b95945050505050565b600160a060020a0316600090815260208190526040902060010154905600a165627a7a72305820a5a87883cee4ff61d036fc27394639b8f87d98effc3b8e01d098ee5c2a21f66e0029",
  "source": "pragma solidity ^0.4.8;\r\n\r\ncontract ExternalStorage {\r\n\r\n  struct Portefeuille {\r\n    int     energyAccumul;\r\n    int    balance;\r\n    uint    islandID;\r\n  }\r\n  \r\n  mapping(address=>Portefeuille) profil;\r\n  mapping(uint=>mapping(uint=>bool)) isConnected;\r\n\r\n  //event MeterLog(int energyDelta, uint changeAt);\r\n  // events should be placed in the main contract...\r\n\r\n  function ExternalStorage() {\r\n    // constructor\r\n  }\r\n\r\n  // Simple set and get functions\r\n\r\n  function addMeter(address mAdr, uint ilID) {\r\n    profil[mAdr] = Portefeuille(0,0,ilID);\r\n    setConnection(ilID,ilID);\r\n\r\n    // For now we do not delete the smart meter or disenable it..... (it mighted be a dead smart meter placed in the network)\r\n  }\r\n\r\n  function setEnergy(address mAdr, int energyDelta) {\r\n    // require... assert the address is in the network...\r\n    profil[mAdr].energyAccumul += energyDelta;\r\n  }\r\n\r\n  function getEnergy(address mAdr) returns(int) {\r\n    return profil[mAdr].energyAccumul;\r\n  }\r\n\r\n  function setBalance(address mAdr, int balanceDelta) {\r\n    // require... assert the address is in the network...\r\n    profil[mAdr].balance += balanceDelta;\r\n  }\r\n\r\n  function getBalance(address mAdr) returns(int) {\r\n    return profil[mAdr].balance;\r\n  }\r\n\r\n  function setIslandId(address mAdr, uint ilID) {\r\n    // require... assert the address is in the network...\r\n    profil[mAdr].islandID = ilID;\r\n  }\r\n\r\n  function getIslandId(address mAdr) returns(uint) {\r\n    return profil[mAdr].islandID;\r\n  }\r\n\r\n  function setConnection(uint _id1, uint _id2) {\r\n    //require(!getConnection(_id1, _id2));\r\n    isConnected[_id1][_id2] = true;\r\n  }\r\n\r\n  function getConnection(uint _id1, uint _id2) returns(bool) {\r\n    return isConnected[_id1][_id2];\r\n  }\r\n\r\n  function isNodesConnected(address mAdr1, address mAdr2) returns(bool) {\r\n    uint temp1;\r\n    uint temp2;\r\n    temp1 = getIslandId(mAdr1);\r\n    temp2 = getIslandId(mAdr2);\r\n    return getConnection(temp1,temp2);\r\n  }\r\n}\r\n",
  "sourcePath": "C:\\Users\\qianc\\Documents\\H4C\\H4C_EB_Island\\SmartContract\\contracts\\ExternalStorage.sol",
  "compiler": {
    "name": "solc",
    "version": "0.4.18+commit.9cf6e910.Emscripten.clang"
  },
  "schemaVersion": "1.0.1",
  "updatedAt": "2017-11-14T12:54:56.546Z"
}