{
  "contractName": "ExternalStorage",
  "abi": [
    {
      "constant": false,
      "inputs": [
        {
          "name": "_id1",
          "type": "uint256"
        },
        {
          "name": "_id2",
          "type": "uint256"
        }
      ],
      "name": "setConnection",
      "outputs": [],
      "payable": false,
      "stateMutability": "nonpayable",
      "type": "function"
    },
    {
      "constant": false,
      "inputs": [
        {
          "name": "mAdr",
          "type": "address"
        },
        {
          "name": "ilID",
          "type": "uint256"
        }
      ],
      "name": "setIslandId",
      "outputs": [],
      "payable": false,
      "stateMutability": "nonpayable",
      "type": "function"
    },
    {
      "constant": false,
      "inputs": [
        {
          "name": "mAdr",
          "type": "address"
        }
      ],
      "name": "getIslandId",
      "outputs": [
        {
          "name": "",
          "type": "uint256"
        }
      ],
      "payable": false,
      "stateMutability": "nonpayable",
      "type": "function"
    },
    {
      "constant": false,
      "inputs": [
        {
          "name": "mAdr",
          "type": "address"
        },
        {
          "name": "ilID",
          "type": "uint256"
        }
      ],
      "name": "addMeter",
      "outputs": [],
      "payable": false,
      "stateMutability": "nonpayable",
      "type": "function"
    },
    {
      "constant": false,
      "inputs": [
        {
          "name": "_id1",
          "type": "uint256"
        },
        {
          "name": "_id2",
          "type": "uint256"
        }
      ],
      "name": "getConnection",
      "outputs": [
        {
          "name": "",
          "type": "bool"
        }
      ],
      "payable": false,
      "stateMutability": "nonpayable",
      "type": "function"
    },
    {
      "constant": false,
      "inputs": [
        {
          "name": "mAdr",
          "type": "address"
        }
      ],
      "name": "getEnergy",
      "outputs": [
        {
          "name": "",
          "type": "int256"
        }
      ],
      "payable": false,
      "stateMutability": "nonpayable",
      "type": "function"
    },
    {
      "constant": false,
      "inputs": [
        {
          "name": "mAdr",
          "type": "address"
        },
        {
          "name": "energyDelta",
          "type": "int256"
        }
      ],
      "name": "setEnergy",
      "outputs": [],
      "payable": false,
      "stateMutability": "nonpayable",
      "type": "function"
    },
    {
      "constant": false,
      "inputs": [
        {
          "name": "mAdr",
          "type": "address"
        }
      ],
      "name": "getMeter",
      "outputs": [
        {
          "name": "",
          "type": "uint256"
        }
      ],
      "payable": false,
      "stateMutability": "nonpayable",
      "type": "function"
    },
    {
      "constant": false,
      "inputs": [
        {
          "name": "mAdr",
          "type": "address"
        },
        {
          "name": "balanceDelta",
          "type": "uint256"
        }
      ],
      "name": "setBalance",
      "outputs": [],
      "payable": false,
      "stateMutability": "nonpayable",
      "type": "function"
    },
    {
      "constant": false,
      "inputs": [
        {
          "name": "mAdr1",
          "type": "address"
        },
        {
          "name": "mAdr2",
          "type": "address"
        }
      ],
      "name": "isNodesConnected",
      "outputs": [
        {
          "name": "",
          "type": "bool"
        }
      ],
      "payable": false,
      "stateMutability": "nonpayable",
      "type": "function"
    },
    {
      "constant": false,
      "inputs": [
        {
          "name": "mAdr",
          "type": "address"
        }
      ],
      "name": "getBalance",
      "outputs": [
        {
          "name": "",
          "type": "uint256"
        }
      ],
      "payable": false,
      "stateMutability": "nonpayable",
      "type": "function"
    },
    {
      "inputs": [],
      "payable": false,
      "stateMutability": "nonpayable",
      "type": "constructor"
    }
  ],
  "bytecode": "0x6060604052341561000f57600080fd5b6103cf8061001e6000396000f3006060604052600436106100ae5763ffffffff7c0100000000000000000000000000000000000000000000000000000000600035041663158ac57581146100b35780632b9b6055146100ce57806330e3ecac146100f0578063562f3b26146101215780635ca51979146101435780638fc0f5eb14610170578063b778962e1461018f578063c611e2a9146100f0578063e30443bc146101b1578063f3fab048146101d3578063f8b2cb4f146101f8575b600080fd5b34156100be57600080fd5b6100cc600435602435610217565b005b34156100d957600080fd5b6100cc600160a060020a036004351660243561023d565b34156100fb57600080fd5b61010f600160a060020a036004351661025c565b60405190815260200160405180910390f35b341561012c57600080fd5b6100cc600160a060020a036004351660243561027a565b341561014e57600080fd5b61015c6004356024356102d5565b604051901515815260200160405180910390f35b341561017b57600080fd5b61010f600160a060020a03600435166102f5565b341561019a57600080fd5b6100cc600160a060020a0360043516602435610310565b34156101bc57600080fd5b6100cc600160a060020a0360043516602435610332565b34156101de57600080fd5b61015c600160a060020a0360043581169060243516610357565b341561020357600080fd5b61010f600160a060020a0360043516610385565b60009182526001602081815260408085209385529290529120805460ff19169091179055565b600160a060020a03909116600090815260208190526040902060020155565b600160a060020a031660009081526020819052604090206002015490565b6060604051908101604090815260008083526064602080850191909152828401859052600160a060020a03861682528190522081518155602082015181600101556040820151600290910155506102d18180610217565b5050565b600091825260016020908152604080842092845291905290205460ff1690565b600160a060020a031660009081526020819052604090205490565b600160a060020a03909116600090815260208190526040902080549091019055565b600160a060020a03909116600090815260208190526040902060010180549091019055565b60008060006103658561025c565b91506103708461025c565b905061037c82826102d5565b95945050505050565b600160a060020a0316600090815260208190526040902060010154905600a165627a7a72305820a24442729fa8be736c1ee2b7f6db52b0e9d33d0a3b04e87bba42524d6d44207d0029",
  "source": "pragma solidity ^0.4.8;\r\n\r\ncontract ExternalStorage {\r\n\r\n  struct Portefeuille {\r\n    int     energyAccumul;\r\n    uint    balance;\r\n    uint    islandID;\r\n  }\r\n  \r\n  mapping(address=>Portefeuille) profil;\r\n  mapping(uint=>mapping(uint=>bool)) isConnected;\r\n\r\n  //event MeterLog(int energyDelta, uint changeAt);\r\n  // events should be placed in the main contract...\r\n\r\n  function ExternalStorage() {\r\n    // constructor\r\n  }\r\n\r\n  // Simple set and get functions\r\n\r\n  function addMeter(address mAdr, uint ilID) {\r\n    profil[mAdr] = Portefeuille(0,100,ilID);    //By default we allocatoin 100 points into the account\r\n    setConnection(ilID,ilID);\r\n\r\n    // For now we do not delete the smart meter or disenable it..... (it mighted be a dead smart meter placed in the network)\r\n  }\r\n\r\n  function getMeter(address mAdr) returns(uint) {\r\n    return profil[mAdr].islandID;\r\n  }\r\n\r\n  function setEnergy(address mAdr, int energyDelta) {\r\n    // require... assert the address is in the network...\r\n    profil[mAdr].energyAccumul += energyDelta;\r\n  }\r\n\r\n  function getEnergy(address mAdr) returns(int) {\r\n    return profil[mAdr].energyAccumul;\r\n  }\r\n\r\n  function setBalance(address mAdr, uint balanceDelta) {\r\n    // require... assert the address is in the network...\r\n    profil[mAdr].balance += balanceDelta;\r\n  }\r\n\r\n  function getBalance(address mAdr) returns(uint) {\r\n    return profil[mAdr].balance;\r\n  }\r\n\r\n  function setIslandId(address mAdr, uint ilID) {\r\n    // require... assert the address is in the network...\r\n    profil[mAdr].islandID = ilID;\r\n  }\r\n\r\n  function getIslandId(address mAdr) returns(uint) {\r\n    return profil[mAdr].islandID;\r\n  }\r\n\r\n  function setConnection(uint _id1, uint _id2) {\r\n    //require(!getConnection(_id1, _id2));\r\n    isConnected[_id1][_id2] = true;\r\n  }\r\n\r\n  function getConnection(uint _id1, uint _id2) returns(bool) {\r\n    return isConnected[_id1][_id2];\r\n  }\r\n\r\n  function isNodesConnected(address mAdr1, address mAdr2) returns(bool) {\r\n    uint temp1;\r\n    uint temp2;\r\n    temp1 = getIslandId(mAdr1);\r\n    temp2 = getIslandId(mAdr2);\r\n    return getConnection(temp1,temp2);\r\n  }\r\n}\r\n",
  "sourcePath": "C:\\Users\\qianc\\Documents\\H4C\\H4C_EB_Island\\SmartContract\\contracts\\ExternalStorage.sol",
  "compiler": {
    "name": "solc",
    "version": "0.4.18+commit.9cf6e910.Emscripten.clang"
  },
  "schemaVersion": "1.0.1",
  "updatedAt": "2017-11-14T18:28:07.463Z"
}