{
  "contractName": "Record",
  "abi": [
    {
      "constant": false,
      "inputs": [
        {
          "name": "_id1",
          "type": "uint256"
        },
        {
          "name": "_id2",
          "type": "uint256"
        }
      ],
      "name": "setConnection",
      "outputs": [],
      "payable": false,
      "stateMutability": "nonpayable",
      "type": "function"
    },
    {
      "constant": false,
      "inputs": [
        {
          "name": "adr",
          "type": "address"
        },
        {
          "name": "_id",
          "type": "uint256"
        }
      ],
      "name": "setIslandId",
      "outputs": [],
      "payable": false,
      "stateMutability": "nonpayable",
      "type": "function"
    },
    {
      "constant": false,
      "inputs": [
        {
          "name": "_to",
          "type": "address"
        },
        {
          "name": "_p",
          "type": "uint256"
        }
      ],
      "name": "energyTransactRecord",
      "outputs": [
        {
          "name": "",
          "type": "bool"
        }
      ],
      "payable": false,
      "stateMutability": "nonpayable",
      "type": "function"
    },
    {
      "constant": false,
      "inputs": [
        {
          "name": "mAdr",
          "type": "address"
        },
        {
          "name": "ilID",
          "type": "uint256"
        }
      ],
      "name": "addMeter",
      "outputs": [],
      "payable": false,
      "stateMutability": "nonpayable",
      "type": "function"
    },
    {
      "constant": false,
      "inputs": [
        {
          "name": "_to",
          "type": "address"
        },
        {
          "name": "_p",
          "type": "int256"
        }
      ],
      "name": "balanceTransactRecord",
      "outputs": [
        {
          "name": "",
          "type": "bool"
        }
      ],
      "payable": false,
      "stateMutability": "nonpayable",
      "type": "function"
    },
    {
      "constant": false,
      "inputs": [
        {
          "name": "adr",
          "type": "address"
        }
      ],
      "name": "getEnergy",
      "outputs": [
        {
          "name": "",
          "type": "int256"
        }
      ],
      "payable": false,
      "stateMutability": "nonpayable",
      "type": "function"
    },
    {
      "constant": false,
      "inputs": [
        {
          "name": "adr",
          "type": "address"
        }
      ],
      "name": "assertMeterIn",
      "outputs": [
        {
          "name": "",
          "type": "bool"
        }
      ],
      "payable": false,
      "stateMutability": "nonpayable",
      "type": "function"
    },
    {
      "constant": false,
      "inputs": [
        {
          "name": "adr",
          "type": "address"
        },
        {
          "name": "vol",
          "type": "int256"
        }
      ],
      "name": "setEnergy",
      "outputs": [
        {
          "name": "",
          "type": "int256"
        }
      ],
      "payable": false,
      "stateMutability": "nonpayable",
      "type": "function"
    },
    {
      "constant": false,
      "inputs": [
        {
          "name": "_id",
          "type": "uint256"
        }
      ],
      "name": "getAddress",
      "outputs": [
        {
          "name": "",
          "type": "address"
        }
      ],
      "payable": false,
      "stateMutability": "nonpayable",
      "type": "function"
    },
    {
      "constant": false,
      "inputs": [
        {
          "name": "mAdr",
          "type": "address"
        }
      ],
      "name": "getMeter",
      "outputs": [
        {
          "name": "",
          "type": "uint256"
        }
      ],
      "payable": false,
      "stateMutability": "nonpayable",
      "type": "function"
    },
    {
      "constant": false,
      "inputs": [],
      "name": "getdSadr",
      "outputs": [
        {
          "name": "",
          "type": "address"
        }
      ],
      "payable": false,
      "stateMutability": "nonpayable",
      "type": "function"
    },
    {
      "inputs": [],
      "payable": false,
      "stateMutability": "nonpayable",
      "type": "constructor"
    },
    {
      "anonymous": false,
      "inputs": [
        {
          "indexed": false,
          "name": "_from",
          "type": "bytes"
        },
        {
          "indexed": false,
          "name": "_to",
          "type": "bytes"
        },
        {
          "indexed": false,
          "name": "_measuredAt",
          "type": "uint256"
        }
      ],
      "name": "RecordTransaction",
      "type": "event"
    }
  ],
  "bytecode": "0x6060604052341561000f57600080fd5b60008054600160a060020a03191633600160a060020a031617905561003261006d565b604051809103906000f080151561004857600080fd5b60018054600160a060020a031916600160a060020a039290921691909117905561007d565b6040516103ea8061091a83390190565b61088e8061008c6000396000f3006060604052600436106100955763ffffffff60e060020a600035041663158ac575811461009a5780632b9b6055146100b557806352cf993e146100d7578063562f3b261461010d578063893f7e331461012f5780638fc0f5eb14610151578063aa4b08d614610182578063b778962e146101a1578063b93f9b0a146101c3578063c611e2a9146101f5578063cc88631614610214575b600080fd5b34156100a557600080fd5b6100b3600435602435610227565b005b34156100c057600080fd5b6100b3600160a060020a03600435166024356102a4565b34156100e257600080fd5b6100f9600160a060020a03600435166024356102fa565b604051901515815260200160405180910390f35b341561011857600080fd5b6100b3600160a060020a0360043516602435610405565b341561013a57600080fd5b6100f9600160a060020a03600435166024356104af565b341561015c57600080fd5b610170600160a060020a036004351661063b565b60405190815260200160405180910390f35b341561018d57600080fd5b6100f9600160a060020a03600435166106b6565b34156101ac57600080fd5b610170600160a060020a036004351660243561071a565b34156101ce57600080fd5b6101d9600435610784565b604051600160a060020a03909116815260200160405180910390f35b341561020057600080fd5b610170600160a060020a03600435166107b0565b341561021f57600080fd5b6101d961080b565b60005433600160a060020a039081169116141561009557600154600160a060020a031663158ac575838360405160e060020a63ffffffff851602815260048101929092526024820152604401600060405180830381600087803b151561028c57600080fd5b6102c65a03f1151561029d57600080fd5b5050505050565b600154600160a060020a0316632b9b6055838360405160e060020a63ffffffff8516028152600160a060020a0390921660048301526024820152604401600060405180830381600087803b151561028c57600080fd5b60008083610307816106b6565b156100955733610316816106b6565b1561009557600154339350600160a060020a031663b778962e84600088900360405160e060020a63ffffffff8516028152600160a060020a0390921660048301526024820152604401600060405180830381600087803b151561037857600080fd5b6102c65a03f1151561038957600080fd5b5050600154600160a060020a0316905063b778962e878760405160e060020a63ffffffff8516028152600160a060020a0390921660048301526024820152604401600060405180830381600087803b15156103e357600080fd5b6102c65a03f115156103f457600080fd5b505050600193505b50505092915050565b61040e826106b6565b1561041857600080fd5b600280546001810161042a838261081b565b506000918252602090912001805473ffffffffffffffffffffffffffffffffffffffff1916600160a060020a03848116919091179091556001541663562f3b26838360405160e060020a63ffffffff8516028152600160a060020a0390921660048301526024820152604401600060405180830381600087803b151561028c57600080fd5b600080836104bc816106b6565b1561009557336104cb816106b6565b1561009557600154339350600160a060020a031663f3fab048848060006040516020015260405160e060020a63ffffffff8516028152600160a060020a03928316600482015291166024820152604401602060405180830381600087803b151561053457600080fd5b6102c65a03f1151561054557600080fd5b505050604051805190501561063257600154600160a060020a0316632b12d308848760405160e060020a63ffffffff8516028152600160a060020a0390921660048301526024820152604401600060405180830381600087803b15156105aa57600080fd5b6102c65a03f115156105bb57600080fd5b5050600154600160a060020a03169050632b12d308878760405160e060020a63ffffffff8516028152600160a060020a0390921660048301526024820152604401600060405180830381600087803b151561061557600080fd5b6102c65a03f1151561062657600080fd5b505050600193506103fc565b600093506103fc565b600154600090600160a060020a0316638fc0f5eb83836040516020015260405160e060020a63ffffffff8416028152600160a060020a039091166004820152602401602060405180830381600087803b151561069657600080fd5b6102c65a03f115156106a757600080fd5b50505060405180519392505050565b6000805b60025460ff8216101561070f5782600160a060020a031660028260ff168154811015156106e357fe5b600091825260209091200154600160a060020a031614156107075760019150610714565b6001016106ba565b600091505b50919050565b600154600090600160a060020a031663b778962e848460405160e060020a63ffffffff8516028152600160a060020a0390921660048301526024820152604401600060405180830381600087803b151561077357600080fd5b6102c65a03f115156103fc57600080fd5b600060028281548110151561079557fe5b600091825260209091200154600160a060020a031692915050565b600154600090600160a060020a031663c611e2a983836040516020015260405160e060020a63ffffffff8416028152600160a060020a039091166004820152602401602060405180830381600087803b151561069657600080fd5b600154600160a060020a03165b90565b81548183558181151161083f5760008381526020902061083f918101908301610844565b505050565b61081891905b8082111561085e576000815560010161084a565b50905600a165627a7a723058206edde01ca09fc8420063baa05a8f9971f208776e24a21ebf6dc4d692947ea5b400296060604052341561000f57600080fd5b6103cc8061001e6000396000f3006060604052600436106100ae5763ffffffff7c0100000000000000000000000000000000000000000000000000000000600035041663158ac57581146100b35780632b12d308146100ce5780632b9b6055146100f057806330e3ecac14610112578063562f3b26146101435780635ca51979146101655780638fc0f5eb14610192578063b778962e146101b1578063c611e2a914610112578063f3fab048146101d3578063f8b2cb4f146101f8575b600080fd5b34156100be57600080fd5b6100cc600435602435610217565b005b34156100d957600080fd5b6100cc600160a060020a036004351660243561023d565b34156100fb57600080fd5b6100cc600160a060020a0360043516602435610262565b341561011d57600080fd5b610131600160a060020a0360043516610281565b60405190815260200160405180910390f35b341561014e57600080fd5b6100cc600160a060020a036004351660243561029f565b341561017057600080fd5b61017e6004356024356102f7565b604051901515815260200160405180910390f35b341561019d57600080fd5b610131600160a060020a0360043516610317565b34156101bc57600080fd5b6100cc600160a060020a0360043516602435610332565b34156101de57600080fd5b61017e600160a060020a0360043581169060243516610354565b341561020357600080fd5b610131600160a060020a0360043516610382565b60009182526001602081815260408085209385529290529120805460ff19169091179055565b600160a060020a03909116600090815260208190526040902060010180549091019055565b600160a060020a03909116600090815260208190526040902060020155565b600160a060020a031660009081526020819052604090206002015490565b6060604051908101604090815260008083526020808401829052828401859052600160a060020a03861682528190522081518155602082015181600101556040820151600290910155506102f38180610217565b5050565b600091825260016020908152604080842092845291905290205460ff1690565b600160a060020a031660009081526020819052604090205490565b600160a060020a03909116600090815260208190526040902080549091019055565b600080600061036285610281565b915061036d84610281565b905061037982826102f7565b95945050505050565b600160a060020a0316600090815260208190526040902060010154905600a165627a7a72305820875f24caa08500b6a84b0a62bad524684e477474f851fdf0903fd710eb3847dc0029",
  "source": "pragma solidity ^0.4.8;\n\nimport \"./ExternalStorage.sol\";\n\ncontract Record {\n  address   adminAdr;\n  address   dataStorageAdr;\n  address[] meterAdrs;\n\n  event RecordTransaction(bytes _from, bytes _to, uint _measuredAt);\n\n  modifier adminOnly {\n    if (msg.sender == adminAdr) {\n      _;\n    } else {\n      revert();\n    }\n  }\n\n  modifier producerOnly (int _energy){\n    if (_energy > 0) {\n      _;\n    } else {\n      revert();\n    }\n  }\n\n  modifier participantOnly (address adr) {    // The address in in our network (in one of our energy islands)\n    if (assertMeterIn(adr)) {\n      _;\n    } else {\n      revert();\n    }\n  }\n\n  // ==========SetUp=============\n  \n  function Record() {\n    // constructor\n    adminAdr = msg.sender;\n    dataStorageAdr = new ExternalStorage();\n    \n  }\n\n  function getdSadr() returns(address) {\n    return dataStorageAdr;\n  }\n  function addMeter(address mAdr, uint ilID) {\n    require(!assertMeterIn(mAdr));\n    meterAdrs.push(mAdr);\n    ExternalStorage(dataStorageAdr).addMeter(mAdr, ilID);\n    // For now we do not delete the smart meter or disenable it..... (it mighted be a dead smart meter placed in the network)\n  }\n\n  function getMeter(address mAdr) returns(uint) {\n    return ExternalStorage(dataStorageAdr).getMeter(mAdr);\n  }\n\n  function setIslandId(address adr, uint _id) {\n    ExternalStorage(dataStorageAdr).setIslandId(adr, _id);\n  }\n\n  function setConnection(uint _id1, uint _id2) adminOnly {\n    ExternalStorage(dataStorageAdr).setConnection(_id1, _id2);\n  }\n\n\n\n  function energyTransactRecord(address _to, uint _p) participantOnly(_to) participantOnly(msg.sender) returns (bool) {\n    //require(assertMeterIn(msg.sender));\n    address requester = msg.sender;\n    //if (ExternalStorage(dataStorageAdr).isNodesConnected(msg.sender, requester)) {\n      ExternalStorage(dataStorageAdr).setEnergy(requester, -int(_p));\n      ExternalStorage(dataStorageAdr).setEnergy(_to,int(_p));\n      return true;\n    //} else {\n    //  return false;\n    //}\n  }\n\n  function balanceTransactRecord(address _to, int _p) participantOnly(_to) participantOnly(msg.sender) returns (bool) {\n    //require(assertMeterIn(msg.sender));\n    address requester = msg.sender;\n    if (ExternalStorage(dataStorageAdr).isNodesConnected(msg.sender, requester)) {\n      ExternalStorage(dataStorageAdr).setBalance(requester, _p);\n      ExternalStorage(dataStorageAdr).setBalance(_to, _p);\n      return true;\n    } else {\n      return false;\n    }\n  }\n\n  // Assert information\n  function assertMeterIn(address adr) returns(bool) {\n    for (var i = 0; i < meterAdrs.length; i++) {\n      if (meterAdrs[i] == adr) {\n        return true;\n      }\n    }\n    return false;\n  }\n\n  // test functions\n\n  function getAddress(uint _id) returns(address) {\n    return meterAdrs[_id];\n  }\n\n  function getEnergy(address adr) returns(int) {\n    return ExternalStorage(dataStorageAdr).getEnergy(adr);\n  }\n\n  function setEnergy(address adr, int vol) returns(int) {\n   ExternalStorage(dataStorageAdr).setEnergy(adr,vol);\n  }\n}\n",
  "sourcePath": "C:\\Users\\qianc\\Documents\\H4C\\H4C_EB_Island\\SmartContract\\contracts\\Record.sol",
  "compiler": {
    "name": "solc",
    "version": "0.4.18+commit.9cf6e910.Emscripten.clang"
  },
  "schemaVersion": "1.0.1",
  "updatedAt": "2017-11-14T15:21:56.532Z"
}