{
  "contractName": "Record",
  "abi": [
    {
      "constant": false,
      "inputs": [
        {
          "name": "_id1",
          "type": "uint256"
        },
        {
          "name": "_id2",
          "type": "uint256"
        }
      ],
      "name": "setConnection",
      "outputs": [],
      "payable": false,
      "stateMutability": "nonpayable",
      "type": "function"
    },
    {
      "constant": false,
      "inputs": [
        {
          "name": "_to",
          "type": "address"
        },
        {
          "name": "_p",
          "type": "uint256"
        }
      ],
      "name": "energyTransactRecord",
      "outputs": [
        {
          "name": "",
          "type": "bool"
        }
      ],
      "payable": false,
      "stateMutability": "nonpayable",
      "type": "function"
    },
    {
      "constant": false,
      "inputs": [
        {
          "name": "mAdr",
          "type": "address"
        },
        {
          "name": "ilID",
          "type": "uint256"
        }
      ],
      "name": "addMeter",
      "outputs": [],
      "payable": false,
      "stateMutability": "nonpayable",
      "type": "function"
    },
    {
      "constant": false,
      "inputs": [
        {
          "name": "_to",
          "type": "address"
        },
        {
          "name": "_p",
          "type": "int256"
        }
      ],
      "name": "balanceTransactRecord",
      "outputs": [
        {
          "name": "",
          "type": "bool"
        }
      ],
      "payable": false,
      "stateMutability": "nonpayable",
      "type": "function"
    },
    {
      "constant": false,
      "inputs": [
        {
          "name": "adr",
          "type": "address"
        }
      ],
      "name": "assertMeterIn",
      "outputs": [
        {
          "name": "",
          "type": "bool"
        }
      ],
      "payable": false,
      "stateMutability": "nonpayable",
      "type": "function"
    },
    {
      "constant": false,
      "inputs": [
        {
          "name": "_id",
          "type": "uint256"
        }
      ],
      "name": "getAddress",
      "outputs": [
        {
          "name": "",
          "type": "address"
        }
      ],
      "payable": false,
      "stateMutability": "nonpayable",
      "type": "function"
    },
    {
      "inputs": [],
      "payable": false,
      "stateMutability": "nonpayable",
      "type": "constructor"
    },
    {
      "anonymous": false,
      "inputs": [
        {
          "indexed": false,
          "name": "_from",
          "type": "bytes"
        },
        {
          "indexed": false,
          "name": "_to",
          "type": "bytes"
        },
        {
          "indexed": false,
          "name": "_measuredAt",
          "type": "uint256"
        }
      ],
      "name": "RecordTransaction",
      "type": "event"
    }
  ],
  "bytecode": "0x6060604052341561000f57600080fd5b60008054600160a060020a03191633600160a060020a031617905561003261006d565b604051809103906000f080151561004857600080fd5b60018054600160a060020a031916600160a060020a039290921691909117905561007d565b6040516103df806106f983390190565b61066d8061008c6000396000f30060606040526004361061005e5763ffffffff60e060020a600035041663158ac575811461006357806352cf993e1461007e578063562f3b26146100b4578063893f7e33146100d6578063aa4b08d6146100f8578063b93f9b0a14610117575b600080fd5b341561006e57600080fd5b61007c600435602435610149565b005b341561008957600080fd5b6100a0600160a060020a03600435166024356101c6565b604051901515815260200160405180910390f35b34156100bf57600080fd5b61007c600160a060020a0360043516602435610357565b34156100e157600080fd5b6100a0600160a060020a0360043516602435610401565b341561010357600080fd5b6100a0600160a060020a0360043516610567565b341561012257600080fd5b61012d6004356105cb565b604051600160a060020a03909116815260200160405180910390f35b60005433600160a060020a039081169116141561005e57600154600160a060020a031663158ac575838360405160e060020a63ffffffff851602815260048101929092526024820152604401600060405180830381600087803b15156101ae57600080fd5b6102c65a03f115156101bf57600080fd5b5050505050565b600080836101d381610567565b1561005e57336101e281610567565b1561005e57600154339350600160a060020a031663f3fab048848060006040516020015260405160e060020a63ffffffff8516028152600160a060020a03928316600482015291166024820152604401602060405180830381600087803b151561024b57600080fd5b6102c65a03f1151561025c57600080fd5b505050604051805190501561034957600154600160a060020a031663b778962e848760405160e060020a63ffffffff8516028152600160a060020a0390921660048301526024820152604401600060405180830381600087803b15156102c157600080fd5b6102c65a03f115156102d257600080fd5b5050600154600160a060020a0316905063b778962e878760405160e060020a63ffffffff8516028152600160a060020a0390921660048301526024820152604401600060405180830381600087803b151561032c57600080fd5b6102c65a03f1151561033d57600080fd5b5050506001935061034e565b600093505b50505092915050565b61036082610567565b1561036a57600080fd5b600280546001810161037c83826105f7565b506000918252602090912001805473ffffffffffffffffffffffffffffffffffffffff1916600160a060020a03848116919091179091556001541663562f3b26838360405160e060020a63ffffffff8516028152600160a060020a0390921660048301526024820152604401600060405180830381600087803b15156101ae57600080fd5b6000808361040e81610567565b1561005e573361041d81610567565b1561005e57600154339350600160a060020a031663f3fab048848060006040516020015260405160e060020a63ffffffff8516028152600160a060020a03928316600482015291166024820152604401602060405180830381600087803b151561048657600080fd5b6102c65a03f1151561049757600080fd5b505050604051805190501561034957600154600160a060020a0316632b12d308848760405160e060020a63ffffffff8516028152600160a060020a0390921660048301526024820152604401600060405180830381600087803b15156104fc57600080fd5b6102c65a03f1151561050d57600080fd5b5050600154600160a060020a03169050632b12d308878760405160e060020a63ffffffff8516028152600160a060020a0390921660048301526024820152604401600060405180830381600087803b151561032c57600080fd5b6000805b60025460ff821610156105c05782600160a060020a031660028260ff1681548110151561059457fe5b600091825260209091200154600160a060020a031614156105b857600191506105c5565b60010161056b565b600091505b50919050565b60006002828154811015156105dc57fe5b600091825260209091200154600160a060020a031692915050565b81548183558181151161061b5760008381526020902061061b918101908301610620565b505050565b61063e91905b8082111561063a5760008155600101610626565b5090565b905600a165627a7a723058200992a63cc60a70f184439a96d16149a0844bfef00c331027a3860cf6d35f640400296060604052341561000f57600080fd5b6103c18061001e6000396000f3006060604052600436106100a35763ffffffff7c0100000000000000000000000000000000000000000000000000000000600035041663158ac57581146100a85780632b12d308146100c35780632b9b6055146100e557806330e3ecac14610107578063562f3b26146101385780635ca519791461015a5780638fc0f5eb14610187578063b778962e146101a6578063f3fab048146101c8578063f8b2cb4f146101ed575b600080fd5b34156100b357600080fd5b6100c160043560243561020c565b005b34156100ce57600080fd5b6100c1600160a060020a0360043516602435610232565b34156100f057600080fd5b6100c1600160a060020a0360043516602435610257565b341561011257600080fd5b610126600160a060020a0360043516610276565b60405190815260200160405180910390f35b341561014357600080fd5b6100c1600160a060020a0360043516602435610294565b341561016557600080fd5b6101736004356024356102ec565b604051901515815260200160405180910390f35b341561019257600080fd5b610126600160a060020a036004351661030c565b34156101b157600080fd5b6100c1600160a060020a0360043516602435610327565b34156101d357600080fd5b610173600160a060020a0360043581169060243516610349565b34156101f857600080fd5b610126600160a060020a0360043516610377565b60009182526001602081815260408085209385529290529120805460ff19169091179055565b600160a060020a03909116600090815260208190526040902060010180549091019055565b600160a060020a03909116600090815260208190526040902060020155565b600160a060020a031660009081526020819052604090206002015490565b6060604051908101604090815260008083526020808401829052828401859052600160a060020a03861682528190522081518155602082015181600101556040820151600290910155506102e8818061020c565b5050565b600091825260016020908152604080842092845291905290205460ff1690565b600160a060020a031660009081526020819052604090205490565b600160a060020a03909116600090815260208190526040902080549091019055565b600080600061035785610276565b915061036284610276565b905061036e82826102ec565b95945050505050565b600160a060020a0316600090815260208190526040902060010154905600a165627a7a72305820a5a87883cee4ff61d036fc27394639b8f87d98effc3b8e01d098ee5c2a21f66e0029",
  "source": "pragma solidity ^0.4.8;\n\nimport \"./ExternalStorage.sol\";\n\ncontract Record {\n  /*address _id;\n  int     power;\n\n  address generator;\n  address consumer;*/\n  address   adminAdr;\n  address   dataStorageAdr;\n  address[] meterAdrs;\n\n  //event RecordConsumption(bytes _id, uint timeStamp);\n  event RecordTransaction(bytes _from, bytes _to, uint _measuredAt);\n\n  modifier adminOnly {\n    if (msg.sender == adminAdr) {\n      _;\n    } else {\n      revert();\n    }\n  }\n\n  modifier producerOnly (int _energy){\n    if (_energy > 0) {\n      _;\n    } else {\n      revert();\n    }\n  }\n\n  modifier participantOnly (address adr) {    // The address in in our network (in one of our energy islands)\n    if (assertMeterIn(adr)) {\n      _;\n    } else {\n      revert();\n    }\n  }\n\n  // ==========SetUp=============\n  \n  function Record() {\n    // constructor\n    adminAdr = msg.sender;\n    dataStorageAdr = new ExternalStorage();\n    \n  }\n\n  function addMeter(address mAdr, uint ilID) {\n    require(!assertMeterIn(mAdr));\n    meterAdrs.push(mAdr);\n    ExternalStorage(dataStorageAdr).addMeter(mAdr, ilID);\n    // For now we do not delete the smart meter or disenable it..... (it mighted be a dead smart meter placed in the network)\n  }\n\n  function setConnection(uint _id1, uint _id2) adminOnly {\n    ExternalStorage(dataStorageAdr).setConnection(_id1, _id2);\n  }\n\n\n  function energyTransactRecord(address _to, uint _p) participantOnly(_to) participantOnly(msg.sender) returns (bool) {\n    //require(assertMeterIn(msg.sender));\n    address requester = msg.sender;\n    if (ExternalStorage(dataStorageAdr).isNodesConnected(msg.sender, requester)) {\n      ExternalStorage(dataStorageAdr).setEnergy(requester, int(_p));\n      ExternalStorage(dataStorageAdr).setEnergy(_to, int(_p));\n      return true;\n    } else {\n      return false;\n    }\n  }\n\n  function balanceTransactRecord(address _to, int _p) participantOnly(_to) participantOnly(msg.sender) returns (bool) {\n    //require(assertMeterIn(msg.sender));\n    address requester = msg.sender;\n    if (ExternalStorage(dataStorageAdr).isNodesConnected(msg.sender, requester)) {\n      ExternalStorage(dataStorageAdr).setBalance(requester, _p);\n      ExternalStorage(dataStorageAdr).setBalance(_to, _p);\n      return true;\n    } else {\n      return false;\n    }\n  }\n\n  // Assert information\n  function assertMeterIn(address adr) returns(bool) {\n    for (var i = 0; i < meterAdrs.length; i++) {\n      if (meterAdrs[i] == adr) {\n        return true;\n      }\n    }\n    return false;\n  }\n\n  // test functions\n\n  function getAddress(uint _id) returns(address) {\n    return meterAdrs[_id];\n  }\n}\n",
  "sourcePath": "C:\\Users\\qianc\\Documents\\H4C\\H4C_EB_Island\\SmartContract\\contracts\\Record.sol",
  "compiler": {
    "name": "solc",
    "version": "0.4.18+commit.9cf6e910.Emscripten.clang"
  },
  "schemaVersion": "1.0.1",
  "updatedAt": "2017-11-14T12:54:56.542Z"
}