{
  "contractName": "Record",
  "abi": [
    {
      "constant": false,
      "inputs": [],
      "name": "getBalance",
      "outputs": [
        {
          "name": "",
          "type": "uint256"
        }
      ],
      "payable": false,
      "stateMutability": "nonpayable",
      "type": "function"
    },
    {
      "constant": false,
      "inputs": [
        {
          "name": "_id1",
          "type": "uint256"
        },
        {
          "name": "_id2",
          "type": "uint256"
        }
      ],
      "name": "setConnection",
      "outputs": [],
      "payable": false,
      "stateMutability": "nonpayable",
      "type": "function"
    },
    {
      "constant": false,
      "inputs": [
        {
          "name": "adr",
          "type": "address"
        },
        {
          "name": "_id",
          "type": "uint256"
        }
      ],
      "name": "setIslandId",
      "outputs": [],
      "payable": false,
      "stateMutability": "nonpayable",
      "type": "function"
    },
    {
      "constant": false,
      "inputs": [
        {
          "name": "_to",
          "type": "address"
        },
        {
          "name": "_p",
          "type": "uint256"
        }
      ],
      "name": "energyTransactRecord",
      "outputs": [
        {
          "name": "",
          "type": "bool"
        }
      ],
      "payable": false,
      "stateMutability": "nonpayable",
      "type": "function"
    },
    {
      "constant": false,
      "inputs": [
        {
          "name": "mAdr",
          "type": "address"
        },
        {
          "name": "ilID",
          "type": "uint256"
        }
      ],
      "name": "addMeter",
      "outputs": [],
      "payable": false,
      "stateMutability": "nonpayable",
      "type": "function"
    },
    {
      "constant": false,
      "inputs": [
        {
          "name": "adr",
          "type": "address"
        }
      ],
      "name": "getEnergy",
      "outputs": [
        {
          "name": "",
          "type": "int256"
        }
      ],
      "payable": false,
      "stateMutability": "nonpayable",
      "type": "function"
    },
    {
      "constant": false,
      "inputs": [
        {
          "name": "to",
          "type": "address"
        }
      ],
      "name": "receiveEthers",
      "outputs": [],
      "payable": true,
      "stateMutability": "payable",
      "type": "function"
    },
    {
      "constant": false,
      "inputs": [
        {
          "name": "mAdr",
          "type": "address"
        }
      ],
      "name": "getMeter",
      "outputs": [
        {
          "name": "",
          "type": "uint256"
        }
      ],
      "payable": false,
      "stateMutability": "nonpayable",
      "type": "function"
    },
    {
      "inputs": [],
      "payable": false,
      "stateMutability": "nonpayable",
      "type": "constructor"
    },
    {
      "anonymous": false,
      "inputs": [
        {
          "indexed": false,
          "name": "_from",
          "type": "bytes32"
        },
        {
          "indexed": false,
          "name": "_to",
          "type": "bytes32"
        },
        {
          "indexed": false,
          "name": "_measuredAt",
          "type": "uint256"
        }
      ],
      "name": "RecordETransaction",
      "type": "event"
    },
    {
      "anonymous": false,
      "inputs": [
        {
          "indexed": false,
          "name": "_from",
          "type": "bytes32"
        },
        {
          "indexed": false,
          "name": "_to",
          "type": "bytes32"
        },
        {
          "indexed": false,
          "name": "_sentAt",
          "type": "uint256"
        }
      ],
      "name": "RecordFTransaction",
      "type": "event"
    }
  ],
  "bytecode": "0x6060604052341561000f57600080fd5b60008054600160a060020a03191633600160a060020a031617905561003261006d565b604051809103906000f080151561004857600080fd5b60018054600160a060020a031916600160a060020a039290921691909117905561007d565b60405161050f8061091283390190565b6108868061008c6000396000f3006060604052600436106100745763ffffffff60e060020a60003504166312065fe08114610079578063158ac5751461009e5780632b9b6055146100b957806352cf993e146100db578063562f3b26146101115780638fc0f5eb14610133578063aa5f2eab14610152578063c611e2a914610166575b600080fd5b341561008457600080fd5b61008c610185565b60405190815260200160405180910390f35b34156100a957600080fd5b6100b7600435602435610197565b005b34156100c457600080fd5b6100b7600160a060020a0360043516602435610214565b34156100e657600080fd5b6100fd600160a060020a036004351660243561026a565b604051901515815260200160405180910390f35b341561011c57600080fd5b6100b7600160a060020a03600435166024356103ff565b341561013e57600080fd5b61008c600160a060020a03600435166104a9565b6100b7600160a060020a0360043516610524565b341561017157600080fd5b61008c600160a060020a036004351661062c565b33600160a060020a03811631905b5090565b60005433600160a060020a039081169116141561007457600154600160a060020a031663158ac575838360405160e060020a63ffffffff851602815260048101929092526024820152604401600060405180830381600087803b15156101fc57600080fd5b6102c65a03f1151561020d57600080fd5b5050505050565b600154600160a060020a0316632b9b6055838360405160e060020a63ffffffff8516028152600160a060020a0390921660048301526024820152604401600060405180830381600087803b15156101fc57600080fd5b6000808361027781610687565b15610074573361028681610687565b1561007457600154339350600160a060020a031663f3fab048848060006040516020015260405160e060020a63ffffffff8516028152600160a060020a03928316600482015291166024820152604401602060405180830381600087803b15156102ef57600080fd5b6102c65a03f1151561030057600080fd5b50505060405180519050156103f157600154600160a060020a031663b778962e84600088900360405160e060020a63ffffffff8516028152600160a060020a0390921660048301526024820152604401600060405180830381600087803b151561036957600080fd5b6102c65a03f1151561037a57600080fd5b5050600154600160a060020a0316905063b778962e878760405160e060020a63ffffffff8516028152600160a060020a0390921660048301526024820152604401600060405180830381600087803b15156103d457600080fd5b6102c65a03f115156103e557600080fd5b505050600193506103f6565b600093505b50505092915050565b61040882610687565b1561041257600080fd5b60028054600181016104248382610814565b506000918252602090912001805473ffffffffffffffffffffffffffffffffffffffff1916600160a060020a03848116919091179091556001541663562f3b26838360405160e060020a63ffffffff8516028152600160a060020a0390921660048301526024820152604401600060405180830381600087803b15156101fc57600080fd5b600154600090600160a060020a0316638fc0f5eb83836040516020015260405160e060020a63ffffffff8416028152600160a060020a039091166004820152602401602060405180830381600087803b151561050457600080fd5b6102c65a03f1151561051557600080fd5b50505060405180519392505050565b6103e7193401600080336040517f5f66726f6d3a00000000000000000000000000000000000000000000000000008152600160a060020a03919091166c01000000000000000000000000026006820152601a0160405180910390209150306040517f5f746f3a000000000000000000000000000000000000000000000000000000008152600160a060020a03919091166c01000000000000000000000000026004820152601801604051809103902090507f8c311c729fe6243a581e49b832f1691f4f6d930ebd4d26ec3183404ab8ca2e3182824260405192835260208301919091526040808301919091526060909101905180910390a161062684846106eb565b50505050565b600154600090600160a060020a031663c611e2a983836040516020015260405160e060020a63ffffffff8416028152600160a060020a039091166004820152602401602060405180830381600087803b151561050457600080fd5b6000805b60025460ff821610156106e05782600160a060020a031660028260ff168154811015156106b457fe5b600091825260209091200154600160a060020a031614156106d857600191506106e5565b60010161068b565b600091505b50919050565b600080600160a060020a03841683156108fc0284604051600060405180830381858888f19350505050151561071f57600080fd5b306040517f5f66726f6d3a00000000000000000000000000000000000000000000000000008152600160a060020a03919091166c01000000000000000000000000026006820152601a0160405180910390209150836040517f5f746f3a000000000000000000000000000000000000000000000000000000008152600160a060020a03919091166c01000000000000000000000000026004820152601801604051809103902090507f8c311c729fe6243a581e49b832f1691f4f6d930ebd4d26ec3183404ab8ca2e3182824260405192835260208301919091526040808301919091526060909101905180910390a150505050565b8154818355818115116108385760008381526020902061083891810190830161083d565b505050565b61085791905b808211156101935760008155600101610843565b905600a165627a7a72305820c5f5e9725dbdf404567bb8d97cb5f23b5b4773d7fe85adf20c34716a62c1143a00296060604052341561000f57600080fd5b60008054600160a060020a033316600160a060020a03199091161790556104d48061003b6000396000f3006060604052600436106100ae5763ffffffff7c0100000000000000000000000000000000000000000000000000000000600035041663158ac57581146100b35780632b9b6055146100ce57806330e3ecac146100f0578063562f3b26146101215780635ca51979146101435780638fc0f5eb14610170578063b778962e1461018f578063c611e2a9146100f0578063e30443bc146101b1578063f3fab048146101d3578063f8b2cb4f146101f8575b600080fd5b34156100be57600080fd5b6100cc600435602435610217565b005b34156100d957600080fd5b6100cc600160a060020a0360043516602435610257565b34156100fb57600080fd5b61010f600160a060020a0360043516610291565b60405190815260200160405180910390f35b341561012c57600080fd5b6100cc600160a060020a03600435166024356102cc565b341561014e57600080fd5b61015c600435602435610340565b604051901515815260200160405180910390f35b341561017b57600080fd5b61010f600160a060020a0360043516610379565b341561019a57600080fd5b6100cc600160a060020a03600435166024356103b0565b34156101bc57600080fd5b6100cc600160a060020a03600435166024356103ea565b34156101de57600080fd5b61015c600160a060020a0360043581169060243516610428565b341561020357600080fd5b61010f600160a060020a036004351661046d565b60005433600160a060020a03908116911614156100ae5760008281526002602090815260408083208484529091529020805460ff191660011790555b5050565b60005433600160a060020a03908116911614156100ae57600160a060020a0382166000908152600160205260409020600201819055610253565b6000805433600160a060020a03908116911614156100ae5750600160a060020a0381166000908152600160205260409020600201545b919050565b60005433600160a060020a03908116911614156100ae576060604051908101604090815260008083526064602080850191909152828401859052600160a060020a03861682526001905220815181556020820151816001015560408201516002909101555061033b8180610217565b610253565b6000805433600160a060020a03908116911614156100ae5750600091825260026020908152604080842092845291905290205460ff1690565b6000805433600160a060020a03908116911614156100ae5750600160a060020a0381166000908152600160205260409020546102c7565b60005433600160a060020a03908116911614156100ae57600160a060020a0382166000908152600160205260409020805482019055610253565b60005433600160a060020a03908116911614156100ae57600160a060020a038216600090815260016020819052604090912001805482019055610253565b600080548190819033600160a060020a03908116911614156100ae5761044d85610291565b915061045884610291565b90506104648282610340565b95945050505050565b6000805433600160a060020a03908116911614156100ae5750600160a060020a038116600090815260016020819052604090912001546102c75600a165627a7a72305820664bffca8e67560de4a1f3393952d0459eb9f8c3db722bee75be2808b147f37f0029",
  "source": "pragma solidity ^0.4.8;\n\nimport \"./ExternalStorage.sol\";\n\ncontract Record {\n  address   adminAdr;\n  address   dataStorageAdr;\n  address[] meterAdrs;\n\n  event RecordETransaction(bytes32 _from, bytes32 _to, uint _measuredAt);\n  event RecordFTransaction(bytes32 _from, bytes32 _to, uint _sentAt);\n\n  modifier adminOnly {\n    if (msg.sender == adminAdr) {\n      _;\n    } else {\n      revert();\n    }\n  }\n\n  modifier producerOnly (int _energy){\n    if (_energy > 0) {\n      _;\n    } else {\n      revert();\n    }\n  }\n\n  modifier participantOnly (address adr) {    // The address in in our network (in one of our energy islands)\n    if (assertMeterIn(adr)) {\n      _;\n    } else {\n      revert();\n    }\n  }\n\n  // ==========SetUp=============\n  \n  function Record() {\n    // constructor\n    adminAdr = msg.sender;\n    dataStorageAdr = new ExternalStorage();\n    \n  }\n  \n  function addMeter(address mAdr, uint ilID) public {\n    require(!assertMeterIn(mAdr));\n    meterAdrs.push(mAdr);\n    ExternalStorage(dataStorageAdr).addMeter(mAdr, ilID);\n    // For now we do not delete the smart meter or disenable it..... (it mighted be a dead smart meter placed in the network)\n  }\n\n\n  function setIslandId(address adr, uint _id) public {\n    ExternalStorage(dataStorageAdr).setIslandId(adr, _id);\n  }\n\n  function setConnection(uint _id1, uint _id2) adminOnly public {\n    ExternalStorage(dataStorageAdr).setConnection(_id1, _id2);\n  }\n\n// ==== Regular use ====\n\n  function receiveEthers(address to) payable public {\n    uint fValue;\n    bytes32 _from;\n    bytes32 _to;\n    fValue = msg.value-1000;\n    _from = keccak256(\"_from:\",msg.sender);\n    _to = keccak256(\"_to:\",address(this));\n    RecordFTransaction(_from, _to, now);\n    sendEthers(to,fValue);    //each transaction will give 1000 wei as service fee\n  }\n\n  function sendEthers(address to, uint p) private {\n    bytes32 _from;\n    bytes32 _to;\n    to.transfer(p);\n    _from = keccak256(\"_from:\",address(this));\n    _to = keccak256(\"_to:\",to);\n    RecordFTransaction(_from, _to, now);\n  }\n\n\n  function energyTransactRecord(address _to, uint _p) participantOnly(_to) participantOnly(msg.sender) public returns (bool) {\n    //require(assertMeterIn(msg.sender));\n    address requester = msg.sender;\n    if (ExternalStorage(dataStorageAdr).isNodesConnected(msg.sender, requester)) {\n      ExternalStorage(dataStorageAdr).setEnergy(requester, -int(_p));\n      ExternalStorage(dataStorageAdr).setEnergy(_to,int(_p));\n      return true;\n    } else {\n      return false;\n    }\n  }\n\n  /*function balanceTransactRecord(address _to, uint _p) participantOnly(_to) participantOnly(msg.sender) payable returns (bool) {\n    //require(assertMeterIn(msg.sender));\n    address requester = msg.sender;\n    if (ExternalStorage(dataStorageAdr).isNodesConnected(msg.sender, requester)) {\n      // Solution 1: recording financial settlement via integers\n      ExternalStorage(dataStorageAdr).setBalance(requester, -_p);\n      ExternalStorage(dataStorageAdr).setBalance(_to, _p);\n      // Solution 2: recording the financial settlement via ethers\n      _to.send(_p*3000000000000000);    // change to wei\n      return true;\n    } else {\n      return false;\n    }\n  }*/\n\n  // Assert information\n  function assertMeterIn(address adr) private returns(bool) {\n    for (var i = 0; i < meterAdrs.length; i++) {\n      if (meterAdrs[i] == adr) {\n        return true;\n      }\n    }\n    return false;\n  }\n\n  // test functions\n\n  function  getBalance() returns (uint) {\n    address adr;\n    adr = msg.sender;\n    return adr.balance;\n  }\n\n  function getEnergy(address adr) returns(int) {\n    return ExternalStorage(dataStorageAdr).getEnergy(adr);\n  }\n\n  function getMeter(address mAdr) returns(uint) {\n    return ExternalStorage(dataStorageAdr).getMeter(mAdr);\n  }\n\n  /* \n  function getAddress(uint _id) returns(address) {\n    return meterAdrs[_id];\n  }\n\n  function getdSadr() returns(address) {\n    return dataStorageAdr;\n  }\n\n  function setEnergy(address adr, int vol) returns(int) {\n   ExternalStorage(dataStorageAdr).setEnergy(adr,vol);\n  }*/\n}\n",
  "sourcePath": "C:\\Users\\qianc\\Documents\\H4C\\H4C_EB_Island\\SmartContract\\contracts\\Record.sol",
  "compiler": {
    "name": "solc",
    "version": "0.4.18+commit.9cf6e910.Emscripten.clang"
  },
  "schemaVersion": "1.0.1",
  "updatedAt": "2017-11-14T23:18:19.339Z"
}