{
  "contractName": "Record",
  "abi": [
    {
      "constant": false,
      "inputs": [],
      "name": "getBalance",
      "outputs": [
        {
          "name": "",
          "type": "uint256"
        }
      ],
      "payable": false,
      "stateMutability": "nonpayable",
      "type": "function"
    },
    {
      "constant": false,
      "inputs": [
        {
          "name": "_id1",
          "type": "uint256"
        },
        {
          "name": "_id2",
          "type": "uint256"
        }
      ],
      "name": "setConnection",
      "outputs": [],
      "payable": false,
      "stateMutability": "nonpayable",
      "type": "function"
    },
    {
      "constant": false,
      "inputs": [
        {
          "name": "adr",
          "type": "address"
        },
        {
          "name": "_id",
          "type": "uint256"
        }
      ],
      "name": "setIslandId",
      "outputs": [],
      "payable": false,
      "stateMutability": "nonpayable",
      "type": "function"
    },
    {
      "constant": false,
      "inputs": [
        {
          "name": "_to",
          "type": "address"
        },
        {
          "name": "_p",
          "type": "uint256"
        }
      ],
      "name": "energyTransactRecord",
      "outputs": [
        {
          "name": "",
          "type": "bool"
        }
      ],
      "payable": false,
      "stateMutability": "nonpayable",
      "type": "function"
    },
    {
      "constant": false,
      "inputs": [
        {
          "name": "mAdr",
          "type": "address"
        },
        {
          "name": "ilID",
          "type": "uint256"
        }
      ],
      "name": "addMeter",
      "outputs": [],
      "payable": false,
      "stateMutability": "nonpayable",
      "type": "function"
    },
    {
      "constant": false,
      "inputs": [
        {
          "name": "adr",
          "type": "address"
        }
      ],
      "name": "getEnergy",
      "outputs": [
        {
          "name": "",
          "type": "int256"
        }
      ],
      "payable": false,
      "stateMutability": "nonpayable",
      "type": "function"
    },
    {
      "constant": false,
      "inputs": [
        {
          "name": "adr",
          "type": "address"
        }
      ],
      "name": "assertMeterIn",
      "outputs": [
        {
          "name": "",
          "type": "bool"
        }
      ],
      "payable": false,
      "stateMutability": "nonpayable",
      "type": "function"
    },
    {
      "constant": false,
      "inputs": [
        {
          "name": "to",
          "type": "address"
        }
      ],
      "name": "receiveEthers",
      "outputs": [],
      "payable": true,
      "stateMutability": "payable",
      "type": "function"
    },
    {
      "constant": false,
      "inputs": [
        {
          "name": "adr",
          "type": "address"
        },
        {
          "name": "vol",
          "type": "int256"
        }
      ],
      "name": "setEnergy",
      "outputs": [
        {
          "name": "",
          "type": "int256"
        }
      ],
      "payable": false,
      "stateMutability": "nonpayable",
      "type": "function"
    },
    {
      "constant": false,
      "inputs": [
        {
          "name": "_id",
          "type": "uint256"
        }
      ],
      "name": "getAddress",
      "outputs": [
        {
          "name": "",
          "type": "address"
        }
      ],
      "payable": false,
      "stateMutability": "nonpayable",
      "type": "function"
    },
    {
      "constant": false,
      "inputs": [
        {
          "name": "mAdr",
          "type": "address"
        }
      ],
      "name": "getMeter",
      "outputs": [
        {
          "name": "",
          "type": "uint256"
        }
      ],
      "payable": false,
      "stateMutability": "nonpayable",
      "type": "function"
    },
    {
      "constant": false,
      "inputs": [],
      "name": "getdSadr",
      "outputs": [
        {
          "name": "",
          "type": "address"
        }
      ],
      "payable": false,
      "stateMutability": "nonpayable",
      "type": "function"
    },
    {
      "inputs": [],
      "payable": false,
      "stateMutability": "nonpayable",
      "type": "constructor"
    },
    {
      "anonymous": false,
      "inputs": [
        {
          "indexed": false,
          "name": "_from",
          "type": "bytes32"
        },
        {
          "indexed": false,
          "name": "_to",
          "type": "bytes32"
        },
        {
          "indexed": false,
          "name": "_measuredAt",
          "type": "uint256"
        }
      ],
      "name": "RecordETransaction",
      "type": "event"
    },
    {
      "anonymous": false,
      "inputs": [
        {
          "indexed": false,
          "name": "_from",
          "type": "bytes32"
        },
        {
          "indexed": false,
          "name": "_to",
          "type": "bytes32"
        },
        {
          "indexed": false,
          "name": "_sentAt",
          "type": "uint256"
        }
      ],
      "name": "RecordFTransaction",
      "type": "event"
    }
  ],
  "bytecode": "0x6060604052341561000f57600080fd5b60008054600160a060020a03191633600160a060020a031617905561003261006d565b604051809103906000f080151561004857600080fd5b60018054600160a060020a031916600160a060020a039290921691909117905561007d565b6040516103ed80610a6283390190565b6109d68061008c6000396000f3006060604052600436106100a05763ffffffff60e060020a60003504166312065fe081146100a5578063158ac575146100ca5780632b9b6055146100e557806352cf993e14610107578063562f3b261461013d5780638fc0f5eb1461015f578063aa4b08d61461017e578063aa5f2eab1461019d578063b778962e146101b1578063b93f9b0a146101d3578063c611e2a914610205578063cc88631614610224575b600080fd5b34156100b057600080fd5b6100b8610237565b60405190815260200160405180910390f35b34156100d557600080fd5b6100e3600435602435610249565b005b34156100f057600080fd5b6100e3600160a060020a03600435166024356102c6565b341561011257600080fd5b610129600160a060020a036004351660243561031c565b604051901515815260200160405180910390f35b341561014857600080fd5b6100e3600160a060020a03600435166024356104b1565b341561016a57600080fd5b6100b8600160a060020a036004351661055b565b341561018957600080fd5b610129600160a060020a03600435166105d6565b6100e3600160a060020a036004351661063a565b34156101bc57600080fd5b6100b8600160a060020a036004351660243561073d565b34156101de57600080fd5b6101e96004356107a7565b604051600160a060020a03909116815260200160405180910390f35b341561021057600080fd5b6100b8600160a060020a03600435166107d3565b341561022f57600080fd5b6101e961082e565b33600160a060020a03811631905b5090565b60005433600160a060020a03908116911614156100a057600154600160a060020a031663158ac575838360405160e060020a63ffffffff851602815260048101929092526024820152604401600060405180830381600087803b15156102ae57600080fd5b6102c65a03f115156102bf57600080fd5b5050505050565b600154600160a060020a0316632b9b6055838360405160e060020a63ffffffff8516028152600160a060020a0390921660048301526024820152604401600060405180830381600087803b15156102ae57600080fd5b60008083610329816105d6565b156100a05733610338816105d6565b156100a057600154339350600160a060020a031663f3fab048848060006040516020015260405160e060020a63ffffffff8516028152600160a060020a03928316600482015291166024820152604401602060405180830381600087803b15156103a157600080fd5b6102c65a03f115156103b257600080fd5b50505060405180519050156104a357600154600160a060020a031663b778962e84600088900360405160e060020a63ffffffff8516028152600160a060020a0390921660048301526024820152604401600060405180830381600087803b151561041b57600080fd5b6102c65a03f1151561042c57600080fd5b5050600154600160a060020a0316905063b778962e878760405160e060020a63ffffffff8516028152600160a060020a0390921660048301526024820152604401600060405180830381600087803b151561048657600080fd5b6102c65a03f1151561049757600080fd5b505050600193506104a8565b600093505b50505092915050565b6104ba826105d6565b156104c457600080fd5b60028054600181016104d68382610967565b506000918252602090912001805473ffffffffffffffffffffffffffffffffffffffff1916600160a060020a03848116919091179091556001541663562f3b26838360405160e060020a63ffffffff8516028152600160a060020a0390921660048301526024820152604401600060405180830381600087803b15156102ae57600080fd5b600154600090600160a060020a0316638fc0f5eb83836040516020015260405160e060020a63ffffffff8416028152600160a060020a039091166004820152602401602060405180830381600087803b15156105b657600080fd5b6102c65a03f115156105c757600080fd5b50505060405180519392505050565b6000805b60025460ff8216101561062f5782600160a060020a031660028260ff1681548110151561060357fe5b600091825260209091200154600160a060020a031614156106275760019150610634565b6001016105da565b600091505b50919050565b34600080336040517f5f66726f6d3a00000000000000000000000000000000000000000000000000008152600160a060020a03919091166c01000000000000000000000000026006820152601a0160405180910390209150306040517f5f746f3a000000000000000000000000000000000000000000000000000000008152600160a060020a03919091166c01000000000000000000000000026004820152601801604051809103902090507f8c311c729fe6243a581e49b832f1691f4f6d930ebd4d26ec3183404ab8ca2e3182824260405192835260208301919091526040808301919091526060909101905180910390a1610737848461083e565b50505050565b600154600090600160a060020a031663b778962e848460405160e060020a63ffffffff8516028152600160a060020a0390921660048301526024820152604401600060405180830381600087803b151561079657600080fd5b6102c65a03f115156104a857600080fd5b60006002828154811015156107b857fe5b600091825260209091200154600160a060020a031692915050565b600154600090600160a060020a031663c611e2a983836040516020015260405160e060020a63ffffffff8416028152600160a060020a039091166004820152602401602060405180830381600087803b15156105b657600080fd5b600154600160a060020a03165b90565b600080600160a060020a03841683156108fc0284604051600060405180830381858888f19350505050151561087257600080fd5b306040517f5f66726f6d3a00000000000000000000000000000000000000000000000000008152600160a060020a03919091166c01000000000000000000000000026006820152601a0160405180910390209150836040517f5f746f3a000000000000000000000000000000000000000000000000000000008152600160a060020a03919091166c01000000000000000000000000026004820152601801604051809103902090507f8c311c729fe6243a581e49b832f1691f4f6d930ebd4d26ec3183404ab8ca2e3182824260405192835260208301919091526040808301919091526060909101905180910390a150505050565b81548183558181151161098b5760008381526020902061098b918101908301610990565b505050565b61083b91905b8082111561024557600081556001016109965600a165627a7a723058204b6f57076ec208db3940458b928228509ac79e81e7bff2af53bfbf83d009195a00296060604052341561000f57600080fd5b6103cf8061001e6000396000f3006060604052600436106100ae5763ffffffff7c0100000000000000000000000000000000000000000000000000000000600035041663158ac57581146100b35780632b9b6055146100ce57806330e3ecac146100f0578063562f3b26146101215780635ca51979146101435780638fc0f5eb14610170578063b778962e1461018f578063c611e2a9146100f0578063e30443bc146101b1578063f3fab048146101d3578063f8b2cb4f146101f8575b600080fd5b34156100be57600080fd5b6100cc600435602435610217565b005b34156100d957600080fd5b6100cc600160a060020a036004351660243561023d565b34156100fb57600080fd5b61010f600160a060020a036004351661025c565b60405190815260200160405180910390f35b341561012c57600080fd5b6100cc600160a060020a036004351660243561027a565b341561014e57600080fd5b61015c6004356024356102d5565b604051901515815260200160405180910390f35b341561017b57600080fd5b61010f600160a060020a03600435166102f5565b341561019a57600080fd5b6100cc600160a060020a0360043516602435610310565b34156101bc57600080fd5b6100cc600160a060020a0360043516602435610332565b34156101de57600080fd5b61015c600160a060020a0360043581169060243516610357565b341561020357600080fd5b61010f600160a060020a0360043516610385565b60009182526001602081815260408085209385529290529120805460ff19169091179055565b600160a060020a03909116600090815260208190526040902060020155565b600160a060020a031660009081526020819052604090206002015490565b6060604051908101604090815260008083526064602080850191909152828401859052600160a060020a03861682528190522081518155602082015181600101556040820151600290910155506102d18180610217565b5050565b600091825260016020908152604080842092845291905290205460ff1690565b600160a060020a031660009081526020819052604090205490565b600160a060020a03909116600090815260208190526040902080549091019055565b600160a060020a03909116600090815260208190526040902060010180549091019055565b60008060006103658561025c565b91506103708461025c565b905061037c82826102d5565b95945050505050565b600160a060020a0316600090815260208190526040902060010154905600a165627a7a72305820c0912f96208492ff8f381bebdd1e131efa44872ac1ba19d6a6f499e9bbdf1b2e0029",
  "source": "pragma solidity ^0.4.8;\n\nimport \"./ExternalStorage.sol\";\n\ncontract Record {\n  address   adminAdr;\n  address   dataStorageAdr;\n  address[] meterAdrs;\n\n  event RecordETransaction(bytes32 _from, bytes32 _to, uint _measuredAt);\n  event RecordFTransaction(bytes32 _from, bytes32 _to, uint _sentAt);\n\n  modifier adminOnly {\n    if (msg.sender == adminAdr) {\n      _;\n    } else {\n      revert();\n    }\n  }\n\n  modifier producerOnly (int _energy){\n    if (_energy > 0) {\n      _;\n    } else {\n      revert();\n    }\n  }\n\n  modifier participantOnly (address adr) {    // The address in in our network (in one of our energy islands)\n    if (assertMeterIn(adr)) {\n      _;\n    } else {\n      revert();\n    }\n  }\n\n  // ==========SetUp=============\n  \n  function Record() {\n    // constructor\n    adminAdr = msg.sender;\n    dataStorageAdr = new ExternalStorage();\n    \n  }\n  \n  function addMeter(address mAdr, uint ilID) {\n    require(!assertMeterIn(mAdr));\n    meterAdrs.push(mAdr);\n    ExternalStorage(dataStorageAdr).addMeter(mAdr, ilID);\n    // For now we do not delete the smart meter or disenable it..... (it mighted be a dead smart meter placed in the network)\n  }\n\n\n  function setIslandId(address adr, uint _id) {\n    ExternalStorage(dataStorageAdr).setIslandId(adr, _id);\n  }\n\n  function setConnection(uint _id1, uint _id2) adminOnly {\n    ExternalStorage(dataStorageAdr).setConnection(_id1, _id2);\n  }\n\n// ==== Regular use ====\n\n  function receiveEthers(address to) payable {\n    uint fValue;\n    bytes32 _from;\n    bytes32 _to;\n    fValue = msg.value;\n    _from = keccak256(\"_from:\",msg.sender);\n    _to = keccak256(\"_to:\",address(this));\n    RecordFTransaction(_from, _to, now);\n    sendEthers(to,fValue);    //each transaction will give 1000 wei as service fee\n  }\n\n  function sendEthers(address to, uint p) private {\n    bytes32 _from;\n    bytes32 _to;\n    to.transfer(p);\n    _from = keccak256(\"_from:\",address(this));\n    _to = keccak256(\"_to:\",to);\n    RecordFTransaction(_from, _to, now);\n  }\n\n\n  function energyTransactRecord(address _to, uint _p) participantOnly(_to) participantOnly(msg.sender) returns (bool) {\n    //require(assertMeterIn(msg.sender));\n    address requester = msg.sender;\n    if (ExternalStorage(dataStorageAdr).isNodesConnected(msg.sender, requester)) {\n      ExternalStorage(dataStorageAdr).setEnergy(requester, -int(_p));\n      ExternalStorage(dataStorageAdr).setEnergy(_to,int(_p));\n      return true;\n    } else {\n      return false;\n    }\n  }\n\n  /*function balanceTransactRecord(address _to, uint _p) participantOnly(_to) participantOnly(msg.sender) payable returns (bool) {\n    //require(assertMeterIn(msg.sender));\n    address requester = msg.sender;\n    if (ExternalStorage(dataStorageAdr).isNodesConnected(msg.sender, requester)) {\n      // Solution 1: recording financial settlement via integers\n      ExternalStorage(dataStorageAdr).setBalance(requester, -_p);\n      ExternalStorage(dataStorageAdr).setBalance(_to, _p);\n      // Solution 2: recording the financial settlement via ethers\n      _to.send(_p*3000000000000000);    // change to wei\n      return true;\n    } else {\n      return false;\n    }\n  }*/\n\n  // Assert information\n  function assertMeterIn(address adr) returns(bool) {\n    for (var i = 0; i < meterAdrs.length; i++) {\n      if (meterAdrs[i] == adr) {\n        return true;\n      }\n    }\n    return false;\n  }\n\n  // test functions\n\n  function getAddress(uint _id) returns(address) {\n    return meterAdrs[_id];\n  }\n\n  function getEnergy(address adr) returns(int) {\n    return ExternalStorage(dataStorageAdr).getEnergy(adr);\n  }\n\n  function getMeter(address mAdr) returns(uint) {\n    return ExternalStorage(dataStorageAdr).getMeter(mAdr);\n  }\n\n  function getdSadr() returns(address) {\n    return dataStorageAdr;\n  }\n\n  function setEnergy(address adr, int vol) returns(int) {\n   ExternalStorage(dataStorageAdr).setEnergy(adr,vol);\n  }\n\n  function  getBalance() returns (uint) {\n    address adr;\n    adr = msg.sender;\n    return adr.balance;\n  }\n}\n",
  "sourcePath": "C:\\Users\\qianc\\Documents\\H4C\\H4C_EB_Island\\SmartContract\\contracts\\Record.sol",
  "compiler": {
    "name": "solc",
    "version": "0.4.18+commit.9cf6e910.Emscripten.clang"
  },
  "schemaVersion": "1.0.1",
  "updatedAt": "2017-11-14T22:46:43.465Z"
}